{
  "_format": "hh3-artifact-1",
  "contractName": "ObjectNFT",
  "sourceName": "contracts/ObjectNFT.sol",
  "abi": [
    {
      "inputs": [],
      "stateMutability": "nonpayable",
      "type": "constructor"
    },
    {
      "anonymous": false,
      "inputs": [
        {
          "indexed": true,
          "internalType": "address",
          "name": "owner",
          "type": "address"
        },
        {
          "indexed": true,
          "internalType": "address",
          "name": "approved",
          "type": "address"
        },
        {
          "indexed": true,
          "internalType": "uint256",
          "name": "tokenId",
          "type": "uint256"
        }
      ],
      "name": "Approval",
      "type": "event"
    },
    {
      "anonymous": false,
      "inputs": [
        {
          "indexed": true,
          "internalType": "address",
          "name": "owner",
          "type": "address"
        },
        {
          "indexed": true,
          "internalType": "address",
          "name": "operator",
          "type": "address"
        },
        {
          "indexed": false,
          "internalType": "bool",
          "name": "approved",
          "type": "bool"
        }
      ],
      "name": "ApprovalForAll",
      "type": "event"
    },
    {
      "anonymous": false,
      "inputs": [
        {
          "indexed": false,
          "internalType": "uint256",
          "name": "_fromTokenId",
          "type": "uint256"
        },
        {
          "indexed": false,
          "internalType": "uint256",
          "name": "_toTokenId",
          "type": "uint256"
        }
      ],
      "name": "BatchMetadataUpdate",
      "type": "event"
    },
    {
      "anonymous": false,
      "inputs": [
        {
          "indexed": false,
          "internalType": "uint256",
          "name": "_tokenId",
          "type": "uint256"
        }
      ],
      "name": "MetadataUpdate",
      "type": "event"
    },
    {
      "anonymous": false,
      "inputs": [
        {
          "indexed": true,
          "internalType": "uint256",
          "name": "tokenId",
          "type": "uint256"
        },
        {
          "indexed": true,
          "internalType": "address",
          "name": "creator",
          "type": "address"
        },
        {
          "indexed": false,
          "internalType": "string",
          "name": "ipfsCID",
          "type": "string"
        },
        {
          "indexed": false,
          "internalType": "string",
          "name": "objectType",
          "type": "string"
        },
        {
          "indexed": false,
          "internalType": "string",
          "name": "category",
          "type": "string"
        }
      ],
      "name": "ObjectMinted",
      "type": "event"
    },
    {
      "anonymous": false,
      "inputs": [
        {
          "indexed": true,
          "internalType": "uint256",
          "name": "newTokenId",
          "type": "uint256"
        },
        {
          "indexed": true,
          "internalType": "uint256",
          "name": "parentTokenId",
          "type": "uint256"
        },
        {
          "indexed": true,
          "internalType": "address",
          "name": "creator",
          "type": "address"
        },
        {
          "indexed": false,
          "internalType": "uint256",
          "name": "version",
          "type": "uint256"
        }
      ],
      "name": "ObjectVersioned",
      "type": "event"
    },
    {
      "anonymous": false,
      "inputs": [
        {
          "indexed": true,
          "internalType": "address",
          "name": "previousOwner",
          "type": "address"
        },
        {
          "indexed": true,
          "internalType": "address",
          "name": "newOwner",
          "type": "address"
        }
      ],
      "name": "OwnershipTransferred",
      "type": "event"
    },
    {
      "anonymous": false,
      "inputs": [
        {
          "indexed": true,
          "internalType": "address",
          "name": "from",
          "type": "address"
        },
        {
          "indexed": true,
          "internalType": "address",
          "name": "to",
          "type": "address"
        },
        {
          "indexed": true,
          "internalType": "uint256",
          "name": "tokenId",
          "type": "uint256"
        }
      ],
      "name": "Transfer",
      "type": "event"
    },
    {
      "inputs": [
        {
          "internalType": "address",
          "name": "to",
          "type": "address"
        },
        {
          "internalType": "uint256",
          "name": "tokenId",
          "type": "uint256"
        }
      ],
      "name": "approve",
      "outputs": [],
      "stateMutability": "nonpayable",
      "type": "function"
    },
    {
      "inputs": [
        {
          "internalType": "address",
          "name": "owner",
          "type": "address"
        }
      ],
      "name": "balanceOf",
      "outputs": [
        {
          "internalType": "uint256",
          "name": "",
          "type": "uint256"
        }
      ],
      "stateMutability": "view",
      "type": "function"
    },
    {
      "inputs": [
        {
          "internalType": "uint256",
          "name": "tokenId",
          "type": "uint256"
        }
      ],
      "name": "burn",
      "outputs": [],
      "stateMutability": "nonpayable",
      "type": "function"
    },
    {
      "inputs": [
        {
          "internalType": "uint256",
          "name": "parentTokenId",
          "type": "uint256"
        },
        {
          "internalType": "string",
          "name": "ipfsCID",
          "type": "string"
        },
        {
          "internalType": "string",
          "name": "metadataCID",
          "type": "string"
        }
      ],
      "name": "createVersion",
      "outputs": [
        {
          "internalType": "uint256",
          "name": "",
          "type": "uint256"
        }
      ],
      "stateMutability": "nonpayable",
      "type": "function"
    },
    {
      "inputs": [
        {
          "internalType": "uint256",
          "name": "tokenId",
          "type": "uint256"
        }
      ],
      "name": "getApproved",
      "outputs": [
        {
          "internalType": "address",
          "name": "",
          "type": "address"
        }
      ],
      "stateMutability": "view",
      "type": "function"
    },
    {
      "inputs": [
        {
          "internalType": "address",
          "name": "creator",
          "type": "address"
        }
      ],
      "name": "getCreatorTokens",
      "outputs": [
        {
          "internalType": "uint256[]",
          "name": "",
          "type": "uint256[]"
        }
      ],
      "stateMutability": "view",
      "type": "function"
    },
    {
      "inputs": [
        {
          "internalType": "uint256",
          "name": "tokenId",
          "type": "uint256"
        }
      ],
      "name": "getObjectMetadata",
      "outputs": [
        {
          "components": [
            {
              "internalType": "string",
              "name": "ipfsCID",
              "type": "string"
            },
            {
              "internalType": "string",
              "name": "metadataCID",
              "type": "string"
            },
            {
              "internalType": "string",
              "name": "objectType",
              "type": "string"
            },
            {
              "internalType": "string",
              "name": "category",
              "type": "string"
            },
            {
              "internalType": "uint256",
              "name": "version",
              "type": "uint256"
            },
            {
              "internalType": "uint256",
              "name": "createdAt",
              "type": "uint256"
            },
            {
              "internalType": "address",
              "name": "creator",
              "type": "address"
            },
            {
              "internalType": "uint256",
              "name": "parentTokenId",
              "type": "uint256"
            }
          ],
          "internalType": "struct ObjectNFT.ObjectMetadata",
          "name": "",
          "type": "tuple"
        }
      ],
      "stateMutability": "view",
      "type": "function"
    },
    {
      "inputs": [
        {
          "internalType": "address",
          "name": "owner",
          "type": "address"
        },
        {
          "internalType": "address",
          "name": "operator",
          "type": "address"
        }
      ],
      "name": "isApprovedForAll",
      "outputs": [
        {
          "internalType": "bool",
          "name": "",
          "type": "bool"
        }
      ],
      "stateMutability": "view",
      "type": "function"
    },
    {
      "inputs": [
        {
          "internalType": "address",
          "name": "to",
          "type": "address"
        },
        {
          "internalType": "string",
          "name": "ipfsCID",
          "type": "string"
        },
        {
          "internalType": "string",
          "name": "metadataCID",
          "type": "string"
        },
        {
          "internalType": "string",
          "name": "objectType",
          "type": "string"
        },
        {
          "internalType": "string",
          "name": "category",
          "type": "string"
        }
      ],
      "name": "mintObject",
      "outputs": [
        {
          "internalType": "uint256",
          "name": "",
          "type": "uint256"
        }
      ],
      "stateMutability": "nonpayable",
      "type": "function"
    },
    {
      "inputs": [],
      "name": "name",
      "outputs": [
        {
          "internalType": "string",
          "name": "",
          "type": "string"
        }
      ],
      "stateMutability": "view",
      "type": "function"
    },
    {
      "inputs": [
        {
          "internalType": "uint256",
          "name": "",
          "type": "uint256"
        }
      ],
      "name": "objectMetadata",
      "outputs": [
        {
          "internalType": "string",
          "name": "ipfsCID",
          "type": "string"
        },
        {
          "internalType": "string",
          "name": "metadataCID",
          "type": "string"
        },
        {
          "internalType": "string",
          "name": "objectType",
          "type": "string"
        },
        {
          "internalType": "string",
          "name": "category",
          "type": "string"
        },
        {
          "internalType": "uint256",
          "name": "version",
          "type": "uint256"
        },
        {
          "internalType": "uint256",
          "name": "createdAt",
          "type": "uint256"
        },
        {
          "internalType": "address",
          "name": "creator",
          "type": "address"
        },
        {
          "internalType": "uint256",
          "name": "parentTokenId",
          "type": "uint256"
        }
      ],
      "stateMutability": "view",
      "type": "function"
    },
    {
      "inputs": [],
      "name": "owner",
      "outputs": [
        {
          "internalType": "address",
          "name": "",
          "type": "address"
        }
      ],
      "stateMutability": "view",
      "type": "function"
    },
    {
      "inputs": [
        {
          "internalType": "uint256",
          "name": "tokenId",
          "type": "uint256"
        }
      ],
      "name": "ownerOf",
      "outputs": [
        {
          "internalType": "address",
          "name": "",
          "type": "address"
        }
      ],
      "stateMutability": "view",
      "type": "function"
    },
    {
      "inputs": [],
      "name": "renounceOwnership",
      "outputs": [],
      "stateMutability": "nonpayable",
      "type": "function"
    },
    {
      "inputs": [
        {
          "internalType": "address",
          "name": "from",
          "type": "address"
        },
        {
          "internalType": "address",
          "name": "to",
          "type": "address"
        },
        {
          "internalType": "uint256",
          "name": "tokenId",
          "type": "uint256"
        }
      ],
      "name": "safeTransferFrom",
      "outputs": [],
      "stateMutability": "nonpayable",
      "type": "function"
    },
    {
      "inputs": [
        {
          "internalType": "address",
          "name": "from",
          "type": "address"
        },
        {
          "internalType": "address",
          "name": "to",
          "type": "address"
        },
        {
          "internalType": "uint256",
          "name": "tokenId",
          "type": "uint256"
        },
        {
          "internalType": "bytes",
          "name": "data",
          "type": "bytes"
        }
      ],
      "name": "safeTransferFrom",
      "outputs": [],
      "stateMutability": "nonpayable",
      "type": "function"
    },
    {
      "inputs": [
        {
          "internalType": "address",
          "name": "operator",
          "type": "address"
        },
        {
          "internalType": "bool",
          "name": "approved",
          "type": "bool"
        }
      ],
      "name": "setApprovalForAll",
      "outputs": [],
      "stateMutability": "nonpayable",
      "type": "function"
    },
    {
      "inputs": [
        {
          "internalType": "bytes4",
          "name": "interfaceId",
          "type": "bytes4"
        }
      ],
      "name": "supportsInterface",
      "outputs": [
        {
          "internalType": "bool",
          "name": "",
          "type": "bool"
        }
      ],
      "stateMutability": "view",
      "type": "function"
    },
    {
      "inputs": [],
      "name": "symbol",
      "outputs": [
        {
          "internalType": "string",
          "name": "",
          "type": "string"
        }
      ],
      "stateMutability": "view",
      "type": "function"
    },
    {
      "inputs": [
        {
          "internalType": "uint256",
          "name": "tokenId",
          "type": "uint256"
        }
      ],
      "name": "tokenURI",
      "outputs": [
        {
          "internalType": "string",
          "name": "",
          "type": "string"
        }
      ],
      "stateMutability": "view",
      "type": "function"
    },
    {
      "inputs": [],
      "name": "totalSupply",
      "outputs": [
        {
          "internalType": "uint256",
          "name": "",
          "type": "uint256"
        }
      ],
      "stateMutability": "view",
      "type": "function"
    },
    {
      "inputs": [
        {
          "internalType": "address",
          "name": "from",
          "type": "address"
        },
        {
          "internalType": "address",
          "name": "to",
          "type": "address"
        },
        {
          "internalType": "uint256",
          "name": "tokenId",
          "type": "uint256"
        }
      ],
      "name": "transferFrom",
      "outputs": [],
      "stateMutability": "nonpayable",
      "type": "function"
    },
    {
      "inputs": [
        {
          "internalType": "address",
          "name": "newOwner",
          "type": "address"
        }
      ],
      "name": "transferOwnership",
      "outputs": [],
      "stateMutability": "nonpayable",
      "type": "function"
    }
  ],
  "bytecode": "0x608060405234801562000010575f80fd5b506040518060400160405280600f81526020016e131a59994813d89a9958dd08139195608a1b815250604051806040016040528060048152602001632627a12560e11b815250815f90816200006691906200018d565b5060016200007582826200018d565b505050620000926200008c6200009860201b60201c565b6200009c565b62000255565b3390565b600780546001600160a01b038381166001600160a01b0319831681179093556040519116919082907f8be0079c531659141344cd1fd0a4f28419497f9722a3daafe3b4186f6b6457e0905f90a35050565b634e487b7160e01b5f52604160045260245ffd5b600181811c908216806200011657607f821691505b6020821081036200013557634e487b7160e01b5f52602260045260245ffd5b50919050565b601f82111562000188575f81815260208120601f850160051c81016020861015620001635750805b601f850160051c820191505b8181101562000184578281556001016200016f565b5050505b505050565b81516001600160401b03811115620001a957620001a9620000ed565b620001c181620001ba845462000101565b846200013b565b602080601f831160018114620001f7575f8415620001df5750858301515b5f19600386901b1c1916600185901b17855562000184565b5f85815260208120601f198616915b82811015620002275788860151825594840194600190910190840162000206565b50858210156200024557878501515f19600388901b60f8161c191681555b5050505050600190811b01905550565b6128d980620002635f395ff3fe608060405234801561000f575f80fd5b5060043610610148575f3560e01c806370a08231116100bf578063ab0a4bda11610079578063ab0a4bda146102c5578063b88d4fde146102ec578063c87b56dd146102ff578063e985e9c514610312578063f2fde38b14610325578063f8fd355e14610338575f80fd5b806370a082311461025e578063715018a61461027157806374abfa54146102795780638da5cb5b1461029957806395d89b41146102aa578063a22cb465146102b2575f80fd5b806323b872dd1161011057806323b872dd146101df57806342842e0e146101f257806342966c68146102055780634de894e71461021857806351c6a7c7146102385780636352211e1461024b575f80fd5b806301ffc9a71461014c57806306fdde0314610174578063081812fc14610189578063095ea7b3146101b457806318160ddd146101c9575b5f80fd5b61015f61015a36600461202b565b61034b565b60405190151581526020015b60405180910390f35b61017c61035b565b60405161016b9190612093565b61019c6101973660046120a5565b6103ea565b6040516001600160a01b03909116815260200161016b565b6101c76101c23660046120d7565b61040f565b005b6101d1610528565b60405190815260200161016b565b6101c76101ed3660046120ff565b610537565b6101c76102003660046120ff565b610569565b6101c76102133660046120a5565b610583565b61022b6102263660046120a5565b6105b4565b60405161016b9190612138565b6101d1610246366004612299565b6108eb565b61019c6102593660046120a5565b610a81565b6101d161026c36600461234f565b610ae0565b6101c7610b64565b61028c61028736600461234f565b610b77565b60405161016b9190612368565b6007546001600160a01b031661019c565b61017c610be0565b6101c76102c03660046123ab565b610bef565b6102d86102d33660046120a5565b610bfe565b60405161016b9897969594939291906123e4565b6101c76102fa366004612464565b610e62565b61017c61030d3660046120a5565b610e9a565b61015f6103203660046124db565b610ea5565b6101c761033336600461234f565b610ed2565b6101d161034636600461250c565b610f48565b5f610355826113d8565b92915050565b60605f805461036990612574565b80601f016020809104026020016040519081016040528092919081815260200182805461039590612574565b80156103e05780601f106103b7576101008083540402835291602001916103e0565b820191905f5260205f20905b8154815290600101906020018083116103c357829003601f168201915b5050505050905090565b5f6103f4826113fc565b505f908152600460205260409020546001600160a01b031690565b5f61041982610a81565b9050806001600160a01b0316836001600160a01b03160361048b5760405162461bcd60e51b815260206004820152602160248201527f4552433732313a20617070726f76616c20746f2063757272656e74206f776e656044820152603960f91b60648201526084015b60405180910390fd5b336001600160a01b03821614806104a757506104a78133610ea5565b6105195760405162461bcd60e51b815260206004820152603d60248201527f4552433732313a20617070726f76652063616c6c6572206973206e6f7420746f60448201527f6b656e206f776e6572206f7220617070726f76656420666f7220616c6c0000006064820152608401610482565b610523838361145a565b505050565b5f61053260085490565b905090565b610542335b826114c7565b61055e5760405162461bcd60e51b8152600401610482906125ac565b610523838383611525565b61052383838360405180602001604052805f815250610e62565b61058c3361053c565b6105a85760405162461bcd60e51b8152600401610482906125ac565b6105b181611687565b50565b610601604051806101000160405280606081526020016060815260200160608152602001606081526020015f81526020015f81526020015f6001600160a01b031681526020015f81525090565b5f828152600260205260409020546001600160a01b031661065b5760405162461bcd60e51b8152602060048201526014602482015273151bdad95b88191bd95cc81b9bdd08195e1a5cdd60621b6044820152606401610482565b5f82815260096020526040908190208151610100810190925280548290829061068390612574565b80601f01602080910402602001604051908101604052809291908181526020018280546106af90612574565b80156106fa5780601f106106d1576101008083540402835291602001916106fa565b820191905f5260205f20905b8154815290600101906020018083116106dd57829003601f168201915b5050505050815260200160018201805461071390612574565b80601f016020809104026020016040519081016040528092919081815260200182805461073f90612574565b801561078a5780601f106107615761010080835404028352916020019161078a565b820191905f5260205f20905b81548152906001019060200180831161076d57829003601f168201915b505050505081526020016002820180546107a390612574565b80601f01602080910402602001604051908101604052809291908181526020018280546107cf90612574565b801561081a5780601f106107f15761010080835404028352916020019161081a565b820191905f5260205f20905b8154815290600101906020018083116107fd57829003601f168201915b5050505050815260200160038201805461083390612574565b80601f016020809104026020016040519081016040528092919081815260200182805461085f90612574565b80156108aa5780601f10610881576101008083540402835291602001916108aa565b820191905f5260205f20905b81548152906001019060200180831161088d57829003601f168201915b5050509183525050600482015460208201526005820154604082015260068201546001600160a01b0316606082015260079091015460809091015292915050565b5f806108f660085490565b9050610906600880546001019055565b6109108782611690565b610939818660405160200161092591906125f9565b6040516020818303038152906040526116a9565b6040805161010081018252878152602080820188905281830187905260608201869052600160808301524260a08301523360c08301525f60e08301819052848152600990915291909120815181906109919082612674565b50602082015160018201906109a69082612674565b50604082015160028201906109bb9082612674565b50606082015160038201906109d09082612674565b506080820151600482015560a0820151600582015560c08201516006820180546001600160a01b0319166001600160a01b0390921691909117905560e090910151600790910155335f818152600a60209081526040808320805460018101825590845291909220018390555182907f8f2906f98edade7f6486dc09f597801915cade0b9386820359e96ea4feb6fbbc90610a6f908a9089908990612730565b60405180910390a39695505050505050565b5f818152600260205260408120546001600160a01b0316806103555760405162461bcd60e51b8152602060048201526018602482015277115490cdcc8c4e881a5b9d985b1a59081d1bdad95b88125160421b6044820152606401610482565b5f6001600160a01b038216610b495760405162461bcd60e51b815260206004820152602960248201527f4552433732313a2061646472657373207a65726f206973206e6f7420612076616044820152683634b21037bbb732b960b91b6064820152608401610482565b506001600160a01b03165f9081526003602052604090205490565b610b6c611772565b610b755f6117cc565b565b6001600160a01b0381165f908152600a6020908152604091829020805483518184028101840190945280845260609392830182828015610bd457602002820191905f5260205f20905b815481526020019060010190808311610bc0575b50505050509050919050565b60606001805461036990612574565b610bfa33838361181d565b5050565b60096020525f9081526040902080548190610c1890612574565b80601f0160208091040260200160405190810160405280929190818152602001828054610c4490612574565b8015610c8f5780601f10610c6657610100808354040283529160200191610c8f565b820191905f5260205f20905b815481529060010190602001808311610c7257829003601f168201915b505050505090806001018054610ca490612574565b80601f0160208091040260200160405190810160405280929190818152602001828054610cd090612574565b8015610d1b5780601f10610cf257610100808354040283529160200191610d1b565b820191905f5260205f20905b815481529060010190602001808311610cfe57829003601f168201915b505050505090806002018054610d3090612574565b80601f0160208091040260200160405190810160405280929190818152602001828054610d5c90612574565b8015610da75780601f10610d7e57610100808354040283529160200191610da7565b820191905f5260205f20905b815481529060010190602001808311610d8a57829003601f168201915b505050505090806003018054610dbc90612574565b80601f0160208091040260200160405190810160405280929190818152602001828054610de890612574565b8015610e335780601f10610e0a57610100808354040283529160200191610e33565b820191905f5260205f20905b815481529060010190602001808311610e1657829003601f168201915b505050600484015460058501546006860154600790960154949591949093506001600160a01b03909116915088565b610e6c33836114c7565b610e885760405162461bcd60e51b8152600401610482906125ac565b610e94848484846118ea565b50505050565b60606103558261191d565b6001600160a01b039182165f90815260056020908152604080832093909416825291909152205460ff1690565b610eda611772565b6001600160a01b038116610f3f5760405162461bcd60e51b815260206004820152602660248201527f4f776e61626c653a206e6577206f776e657220697320746865207a65726f206160448201526564647265737360d01b6064820152608401610482565b6105b1816117cc565b5f838152600260205260408120546001600160a01b03163314610fad5760405162461bcd60e51b815260206004820152601d60248201527f4e6f7420746865206f776e6572206f6620706172656e7420746f6b656e0000006044820152606401610482565b5f8481526009602052604080822081516101008101909252805482908290610fd490612574565b80601f016020809104026020016040519081016040528092919081815260200182805461100090612574565b801561104b5780601f106110225761010080835404028352916020019161104b565b820191905f5260205f20905b81548152906001019060200180831161102e57829003601f168201915b5050505050815260200160018201805461106490612574565b80601f016020809104026020016040519081016040528092919081815260200182805461109090612574565b80156110db5780601f106110b2576101008083540402835291602001916110db565b820191905f5260205f20905b8154815290600101906020018083116110be57829003601f168201915b505050505081526020016002820180546110f490612574565b80601f016020809104026020016040519081016040528092919081815260200182805461112090612574565b801561116b5780601f106111425761010080835404028352916020019161116b565b820191905f5260205f20905b81548152906001019060200180831161114e57829003601f168201915b5050505050815260200160038201805461118490612574565b80601f01602080910402602001604051908101604052809291908181526020018280546111b090612574565b80156111fb5780601f106111d2576101008083540402835291602001916111fb565b820191905f5260205f20905b8154815290600101906020018083116111de57829003601f168201915b5050509183525050600482015460208201526005820154604082015260068201546001600160a01b031660608201526007909101546080918201528101519091505f90611249906001612772565b90505f61125560085490565b9050611265600880546001019055565b61126f3382611690565b611284818660405160200161092591906125f9565b60408051610100810182528781526020808201889052858301518284015260608087015190830152608082018590524260a083015260c0808701516001600160a01b03169083015260e082018a90525f848152600990915291909120815181906112ee9082612674565b50602082015160018201906113039082612674565b50604082015160028201906113189082612674565b506060820151600382019061132d9082612674565b506080820151600482015560a0820151600582015560c08201516006820180546001600160a01b0319166001600160a01b0390921691909117905560e090910151600790910155335f818152600a602090815260408083208054600181018255908452928290209092018490559051848152899184917f2ad37f526031d11bc71024cf9ab27c6b6762de55b81b95583a121b0b3d8242f8910160405180910390a49695505050505050565b5f6001600160e01b03198216632483248360e11b1480610355575061035582611a1f565b5f818152600260205260409020546001600160a01b03166105b15760405162461bcd60e51b8152602060048201526018602482015277115490cdcc8c4e881a5b9d985b1a59081d1bdad95b88125160421b6044820152606401610482565b5f81815260046020526040902080546001600160a01b0319166001600160a01b038416908117909155819061148e82610a81565b6001600160a01b03167f8c5be1e5ebec7d5bd14f71427d1e84f3dd0314c0f7b2291e5b200ac8c7c3b92560405160405180910390a45050565b5f806114d283610a81565b9050806001600160a01b0316846001600160a01b031614806114f957506114f98185610ea5565b8061151d5750836001600160a01b0316611512846103ea565b6001600160a01b0316145b949350505050565b826001600160a01b031661153882610a81565b6001600160a01b03161461155e5760405162461bcd60e51b815260040161048290612791565b6001600160a01b0382166115c05760405162461bcd60e51b8152602060048201526024808201527f4552433732313a207472616e7366657220746f20746865207a65726f206164646044820152637265737360e01b6064820152608401610482565b826001600160a01b03166115d382610a81565b6001600160a01b0316146115f95760405162461bcd60e51b815260040161048290612791565b5f81815260046020908152604080832080546001600160a01b03199081169091556001600160a01b038781168086526003855283862080545f1901905590871680865283862080546001019055868652600290945282852080549092168417909155905184937fddf252ad1be2c89b69c2b068fc378daa952ba7f163c4a11628f55a4df523b3ef91a4505050565b6105b181611a6e565b610bfa828260405180602001604052805f815250611aac565b5f828152600260205260409020546001600160a01b03166117235760405162461bcd60e51b815260206004820152602e60248201527f45524337323155524953746f726167653a2055524920736574206f66206e6f6e60448201526d32bc34b9ba32b73a103a37b5b2b760911b6064820152608401610482565b5f82815260066020526040902061173a8282612674565b506040518281527ff8e1a15aba9398e019f0b49df1a4fde98ee17ae345cb5f6b5e2c27f5033e8ce79060200160405180910390a15050565b6007546001600160a01b03163314610b755760405162461bcd60e51b815260206004820181905260248201527f4f776e61626c653a2063616c6c6572206973206e6f7420746865206f776e65726044820152606401610482565b600780546001600160a01b038381166001600160a01b0319831681179093556040519116919082907f8be0079c531659141344cd1fd0a4f28419497f9722a3daafe3b4186f6b6457e0905f90a35050565b816001600160a01b0316836001600160a01b03160361187e5760405162461bcd60e51b815260206004820152601960248201527f4552433732313a20617070726f766520746f2063616c6c6572000000000000006044820152606401610482565b6001600160a01b038381165f81815260056020908152604080832094871680845294825291829020805460ff191686151590811790915591519182527f17307eab39ab6107e8899845ad3d59bd9653f200f220920489ca2b5937696c31910160405180910390a3505050565b6118f5848484611525565b61190184848484611ade565b610e945760405162461bcd60e51b8152600401610482906127d6565b6060611928826113fc565b5f828152600660205260408120805461194090612574565b80601f016020809104026020016040519081016040528092919081815260200182805461196c90612574565b80156119b75780601f1061198e576101008083540402835291602001916119b7565b820191905f5260205f20905b81548152906001019060200180831161199a57829003601f168201915b505050505090505f6119d360408051602081019091525f815290565b905080515f036119e4575092915050565b815115611a165780826040516020016119fe929190612828565b60405160208183030381529060405292505050919050565b61151d84611bdb565b5f6001600160e01b031982166380ac58cd60e01b1480611a4f57506001600160e01b03198216635b5e139f60e01b145b8061035557506301ffc9a760e01b6001600160e01b0319831614610355565b611a7781611c4b565b5f8181526006602052604090208054611a8f90612574565b1590506105b1575f8181526006602052604081206105b191611fcc565b611ab68383611cdd565b611ac25f848484611ade565b6105235760405162461bcd60e51b8152600401610482906127d6565b5f6001600160a01b0384163b15611bd057604051630a85bd0160e11b81526001600160a01b0385169063150b7a0290611b21903390899088908890600401612856565b6020604051808303815f875af1925050508015611b5b575060408051601f3d908101601f19168201909252611b5891810190612888565b60015b611bb6573d808015611b88576040519150601f19603f3d011682016040523d82523d5f602084013e611b8d565b606091505b5080515f03611bae5760405162461bcd60e51b8152600401610482906127d6565b805181602001fd5b6001600160e01b031916630a85bd0160e11b14905061151d565b506001949350505050565b6060611be6826113fc565b5f611bfb60408051602081019091525f815290565b90505f815111611c195760405180602001604052805f815250611c44565b80611c2384611e65565b604051602001611c34929190612828565b6040516020818303038152906040525b9392505050565b5f611c5582610a81565b9050611c6082610a81565b5f83815260046020908152604080832080546001600160a01b03199081169091556001600160a01b0385168085526003845282852080545f190190558785526002909352818420805490911690555192935084927fddf252ad1be2c89b69c2b068fc378daa952ba7f163c4a11628f55a4df523b3ef908390a45050565b6001600160a01b038216611d335760405162461bcd60e51b815260206004820181905260248201527f4552433732313a206d696e7420746f20746865207a65726f20616464726573736044820152606401610482565b5f818152600260205260409020546001600160a01b031615611d975760405162461bcd60e51b815260206004820152601c60248201527f4552433732313a20746f6b656e20616c7265616479206d696e746564000000006044820152606401610482565b5f818152600260205260409020546001600160a01b031615611dfb5760405162461bcd60e51b815260206004820152601c60248201527f4552433732313a20746f6b656e20616c7265616479206d696e746564000000006044820152606401610482565b6001600160a01b0382165f81815260036020908152604080832080546001019055848352600290915280822080546001600160a01b0319168417905551839291907fddf252ad1be2c89b69c2b068fc378daa952ba7f163c4a11628f55a4df523b3ef908290a45050565b60605f611e7183611ef5565b60010190505f8167ffffffffffffffff811115611e9057611e906121f4565b6040519080825280601f01601f191660200182016040528015611eba576020820181803683370190505b5090508181016020015b5f19016f181899199a1a9b1b9c1cb0b131b232b360811b600a86061a8153600a8504945084611ec457509392505050565b5f8072184f03e93ff9f4daa797ed6e38ed64bf6a1f0160401b8310611f335772184f03e93ff9f4daa797ed6e38ed64bf6a1f0160401b830492506040015b6d04ee2d6d415b85acef81000000008310611f5f576d04ee2d6d415b85acef8100000000830492506020015b662386f26fc100008310611f7d57662386f26fc10000830492506010015b6305f5e1008310611f95576305f5e100830492506008015b6127108310611fa957612710830492506004015b60648310611fbb576064830492506002015b600a83106103555760010192915050565b508054611fd890612574565b5f825580601f10611fe7575050565b601f0160209004905f5260205f20908101906105b191905b80821115612012575f8155600101611fff565b5090565b6001600160e01b0319811681146105b1575f80fd5b5f6020828403121561203b575f80fd5b8135611c4481612016565b5f5b83811015612060578181015183820152602001612048565b50505f910152565b5f815180845261207f816020860160208601612046565b601f01601f19169290920160200192915050565b602081525f611c446020830184612068565b5f602082840312156120b5575f80fd5b5035919050565b80356001600160a01b03811681146120d2575f80fd5b919050565b5f80604083850312156120e8575f80fd5b6120f1836120bc565b946020939093013593505050565b5f805f60608486031215612111575f80fd5b61211a846120bc565b9250612128602085016120bc565b9150604084013590509250925092565b602081525f8251610100806020850152612156610120850183612068565b91506020850151601f19808685030160408701526121748483612068565b935060408701519150808685030160608701526121918483612068565b93506060870151915080868503016080870152506121af8382612068565b925050608085015160a085015260a085015160c085015260c08501516121e060e08601826001600160a01b03169052565b5060e0949094015192909301919091525090565b634e487b7160e01b5f52604160045260245ffd5b5f67ffffffffffffffff80841115612222576122226121f4565b604051601f8501601f19908116603f0116810190828211818310171561224a5761224a6121f4565b81604052809350858152868686011115612262575f80fd5b858560208301375f602087830101525050509392505050565b5f82601f83011261228a575f80fd5b611c4483833560208501612208565b5f805f805f60a086880312156122ad575f80fd5b6122b6866120bc565b9450602086013567ffffffffffffffff808211156122d2575f80fd5b6122de89838a0161227b565b955060408801359150808211156122f3575f80fd5b6122ff89838a0161227b565b94506060880135915080821115612314575f80fd5b61232089838a0161227b565b93506080880135915080821115612335575f80fd5b506123428882890161227b565b9150509295509295909350565b5f6020828403121561235f575f80fd5b611c44826120bc565b602080825282518282018190525f9190848201906040850190845b8181101561239f57835183529284019291840191600101612383565b50909695505050505050565b5f80604083850312156123bc575f80fd5b6123c5836120bc565b9150602083013580151581146123d9575f80fd5b809150509250929050565b5f6101008083526123f78184018c612068565b9050828103602084015261240b818b612068565b9050828103604084015261241f818a612068565b905082810360608401526124338189612068565b6080840197909752505060a08101939093526001600160a01b039190911660c083015260e090910152949350505050565b5f805f8060808587031215612477575f80fd5b612480856120bc565b935061248e602086016120bc565b925060408501359150606085013567ffffffffffffffff8111156124b0575f80fd5b8501601f810187136124c0575f80fd5b6124cf87823560208401612208565b91505092959194509250565b5f80604083850312156124ec575f80fd5b6124f5836120bc565b9150612503602084016120bc565b90509250929050565b5f805f6060848603121561251e575f80fd5b83359250602084013567ffffffffffffffff8082111561253c575f80fd5b6125488783880161227b565b9350604086013591508082111561255d575f80fd5b5061256a8682870161227b565b9150509250925092565b600181811c9082168061258857607f821691505b6020821081036125a657634e487b7160e01b5f52602260045260245ffd5b50919050565b6020808252602d908201527f4552433732313a2063616c6c6572206973206e6f7420746f6b656e206f776e6560408201526c1c881bdc88185c1c1c9bdd9959609a1b606082015260800190565b66697066733a2f2f60c81b81525f825161261a816007850160208701612046565b9190910160070192915050565b601f821115610523575f81815260208120601f850160051c8101602086101561264d5750805b601f850160051c820191505b8181101561266c57828155600101612659565b505050505050565b815167ffffffffffffffff81111561268e5761268e6121f4565b6126a28161269c8454612574565b84612627565b602080601f8311600181146126d5575f84156126be5750858301515b5f19600386901b1c1916600185901b17855561266c565b5f85815260208120601f198616915b82811015612703578886015182559484019460019091019084016126e4565b508582101561272057878501515f19600388901b60f8161c191681555b5050505050600190811b01905550565b606081525f6127426060830186612068565b82810360208401526127548186612068565b905082810360408401526127688185612068565b9695505050505050565b8082018082111561035557634e487b7160e01b5f52601160045260245ffd5b60208082526025908201527f4552433732313a207472616e736665722066726f6d20696e636f72726563742060408201526437bbb732b960d91b606082015260800190565b60208082526032908201527f4552433732313a207472616e7366657220746f206e6f6e20455243373231526560408201527131b2b4bb32b91034b6b83632b6b2b73a32b960711b606082015260800190565b5f8351612839818460208801612046565b83519083019061284d818360208801612046565b01949350505050565b6001600160a01b03858116825284166020820152604081018390526080606082018190525f9061276890830184612068565b5f60208284031215612898575f80fd5b8151611c448161201656fea26469706673582212201dbdc98d18d7585a2a46ca42b9b17e4d779208c2c74b4d3dd3720d42e691632964736f6c63430008140033",
  "linkReferences": {},
  "deployedLinkReferences": {},
  "immutableReferences": {},
  "inputSourceName": "project/contracts/ObjectNFT.sol",
  "buildInfoId": "solc-0_8_20-b5b2cc4aaaad1a59222ba564f65749e4e09e01fc"
}