{
  "_format": "hh3-artifact-1",
  "contractName": "Registry",
  "sourceName": "contracts/Registry.sol",
  "abi": [
    {
      "inputs": [],
      "stateMutability": "nonpayable",
      "type": "constructor"
    },
    {
      "anonymous": false,
      "inputs": [
        {
          "indexed": false,
          "internalType": "string[]",
          "name": "categories",
          "type": "string[]"
        }
      ],
      "name": "CategoriesApproved",
      "type": "event"
    },
    {
      "anonymous": false,
      "inputs": [
        {
          "indexed": true,
          "internalType": "address",
          "name": "creator",
          "type": "address"
        },
        {
          "indexed": false,
          "internalType": "uint256",
          "name": "tokenId",
          "type": "uint256"
        }
      ],
      "name": "ObjectMintedGlobal",
      "type": "event"
    },
    {
      "anonymous": false,
      "inputs": [
        {
          "indexed": true,
          "internalType": "address",
          "name": "contractAddress",
          "type": "address"
        }
      ],
      "name": "ObjectNFTRegistered",
      "type": "event"
    },
    {
      "anonymous": false,
      "inputs": [
        {
          "indexed": false,
          "internalType": "string[]",
          "name": "objectTypes",
          "type": "string[]"
        }
      ],
      "name": "ObjectTypesApproved",
      "type": "event"
    },
    {
      "anonymous": false,
      "inputs": [
        {
          "indexed": true,
          "internalType": "address",
          "name": "previousOwner",
          "type": "address"
        },
        {
          "indexed": true,
          "internalType": "address",
          "name": "newOwner",
          "type": "address"
        }
      ],
      "name": "OwnershipTransferred",
      "type": "event"
    },
    {
      "anonymous": false,
      "inputs": [
        {
          "indexed": true,
          "internalType": "address",
          "name": "creator",
          "type": "address"
        },
        {
          "indexed": false,
          "internalType": "uint256",
          "name": "tokenId",
          "type": "uint256"
        }
      ],
      "name": "SceneMintedGlobal",
      "type": "event"
    },
    {
      "anonymous": false,
      "inputs": [
        {
          "indexed": true,
          "internalType": "address",
          "name": "contractAddress",
          "type": "address"
        }
      ],
      "name": "SceneNFTRegistered",
      "type": "event"
    },
    {
      "inputs": [
        {
          "internalType": "string[]",
          "name": "categories",
          "type": "string[]"
        }
      ],
      "name": "approveCategories",
      "outputs": [],
      "stateMutability": "nonpayable",
      "type": "function"
    },
    {
      "inputs": [
        {
          "internalType": "string[]",
          "name": "objectTypes",
          "type": "string[]"
        }
      ],
      "name": "approveObjectTypes",
      "outputs": [],
      "stateMutability": "nonpayable",
      "type": "function"
    },
    {
      "inputs": [
        {
          "internalType": "string",
          "name": "",
          "type": "string"
        }
      ],
      "name": "approvedCategories",
      "outputs": [
        {
          "internalType": "bool",
          "name": "",
          "type": "bool"
        }
      ],
      "stateMutability": "view",
      "type": "function"
    },
    {
      "inputs": [
        {
          "internalType": "string",
          "name": "",
          "type": "string"
        }
      ],
      "name": "approvedObjectTypes",
      "outputs": [
        {
          "internalType": "bool",
          "name": "",
          "type": "bool"
        }
      ],
      "stateMutability": "view",
      "type": "function"
    },
    {
      "inputs": [],
      "name": "getGlobalStats",
      "outputs": [
        {
          "internalType": "uint256",
          "name": "objects",
          "type": "uint256"
        },
        {
          "internalType": "uint256",
          "name": "scenes",
          "type": "uint256"
        }
      ],
      "stateMutability": "view",
      "type": "function"
    },
    {
      "inputs": [
        {
          "internalType": "string",
          "name": "category",
          "type": "string"
        }
      ],
      "name": "isCategoryApproved",
      "outputs": [
        {
          "internalType": "bool",
          "name": "",
          "type": "bool"
        }
      ],
      "stateMutability": "view",
      "type": "function"
    },
    {
      "inputs": [
        {
          "internalType": "string",
          "name": "objectType",
          "type": "string"
        }
      ],
      "name": "isObjectTypeApproved",
      "outputs": [
        {
          "internalType": "bool",
          "name": "",
          "type": "bool"
        }
      ],
      "stateMutability": "view",
      "type": "function"
    },
    {
      "inputs": [],
      "name": "objectNFTAddress",
      "outputs": [
        {
          "internalType": "address",
          "name": "",
          "type": "address"
        }
      ],
      "stateMutability": "view",
      "type": "function"
    },
    {
      "inputs": [],
      "name": "owner",
      "outputs": [
        {
          "internalType": "address",
          "name": "",
          "type": "address"
        }
      ],
      "stateMutability": "view",
      "type": "function"
    },
    {
      "inputs": [
        {
          "internalType": "address",
          "name": "creator",
          "type": "address"
        },
        {
          "internalType": "uint256",
          "name": "tokenId",
          "type": "uint256"
        }
      ],
      "name": "recordObjectMint",
      "outputs": [],
      "stateMutability": "nonpayable",
      "type": "function"
    },
    {
      "inputs": [
        {
          "internalType": "address",
          "name": "creator",
          "type": "address"
        },
        {
          "internalType": "uint256",
          "name": "tokenId",
          "type": "uint256"
        }
      ],
      "name": "recordSceneMint",
      "outputs": [],
      "stateMutability": "nonpayable",
      "type": "function"
    },
    {
      "inputs": [
        {
          "internalType": "address",
          "name": "_objectNFTAddress",
          "type": "address"
        }
      ],
      "name": "registerObjectNFT",
      "outputs": [],
      "stateMutability": "nonpayable",
      "type": "function"
    },
    {
      "inputs": [
        {
          "internalType": "address",
          "name": "_sceneNFTAddress",
          "type": "address"
        }
      ],
      "name": "registerSceneNFT",
      "outputs": [],
      "stateMutability": "nonpayable",
      "type": "function"
    },
    {
      "inputs": [],
      "name": "renounceOwnership",
      "outputs": [],
      "stateMutability": "nonpayable",
      "type": "function"
    },
    {
      "inputs": [],
      "name": "sceneNFTAddress",
      "outputs": [
        {
          "internalType": "address",
          "name": "",
          "type": "address"
        }
      ],
      "stateMutability": "view",
      "type": "function"
    },
    {
      "inputs": [],
      "name": "totalObjectsMinted",
      "outputs": [
        {
          "internalType": "uint256",
          "name": "",
          "type": "uint256"
        }
      ],
      "stateMutability": "view",
      "type": "function"
    },
    {
      "inputs": [],
      "name": "totalScenesMinted",
      "outputs": [
        {
          "internalType": "uint256",
          "name": "",
          "type": "uint256"
        }
      ],
      "stateMutability": "view",
      "type": "function"
    },
    {
      "inputs": [
        {
          "internalType": "address",
          "name": "newOwner",
          "type": "address"
        }
      ],
      "name": "transferOwnership",
      "outputs": [],
      "stateMutability": "nonpayable",
      "type": "function"
    }
  ],
  "bytecode": "0x608060405234801561000f575f80fd5b5061001933610026565b610021610075565b610316565b5f80546001600160a01b038381166001600160a01b0319831681178455604051919092169283917f8be0079c531659141344cd1fd0a4f28419497f9722a3daafe3b4186f6b6457e09190a35050565b6001600360405161009590686675726e697475726560b81b815260090190565b90815260408051918290036020018220805493151560ff19948516179055643232b1b7b960d91b82526003600580840182905282519384900360259081018520805487166001908117909155676c69676874696e6760c01b865260088087018590528551968790036028908101882080548a1684179055636375746560e01b8852600480890187905287519889900360249081018a2080548c16861790556218995960ea1b8a528988018290528851998a900360239081018b2080548d168717905563736f666160e01b8b528a830183905289519a8b900382018b2080548d1687179055647461626c6560d81b8b528a880183905289519a8b900387018b2080548d16871790556431b430b4b960d91b8b528a880183905289519a8b900387018b2080548d1687179055683137b7b5b9b432b63360b91b8b5260098b0183905289519a8b90036029018b2080548d16871790556272756760e81b8b528a890183905289519a8b900381018b2080548d1687179055671dd85b1b17d85c9d60c21b8b52938a018290528851998a9003909201892080548b16851790556536b4b93937b960d11b895260068901819052875198899003602601892080548b1685179055641c1b185b9d60da1b8952948801859052865197889003909301872080548916831790556306c616d760e41b8752868401849052855196879003909201862080548816821790556b66616972795f6c696768747360a01b8652600c8601839052845195869003602c018620805488168217905566706c757368696560c81b86526007860183905284519586900360270186208054881682179055626d756760e81b8652928501919091529151928390039091019091208054909216179055565b610b47806103235f395ff3fe608060405234801561000f575f80fd5b5060043610610111575f3560e01c806384f920ac1161009e5780639343ada51161006e5780639343ada5146102615780639ec1fe3f14610274578063c1d3809414610287578063e2fc0e6e1461029a578063f2fde38b146102ad575f80fd5b806384f920ac1461020e578063876c1c84146102215780638da5cb5b1461022a5780638fbc51e21461024e575f80fd5b80635e6d9c11116100e45780635e6d9c111461019557806365864955146101c35780636b4169c3146101d8578063715018a6146101f357806378fa48ae146101fb575f80fd5b806311c350c8146101155780633006fc051461015857806332bb5b1a1461016f57806347ec1f1d14610182575b5f80fd5b6101436101233660046108ca565b805160208183018101805160048252928201919093012091525460ff1681565b60405190151581526020015b60405180910390f35b61016160065481565b60405190815260200161014f565b61014361017d3660046108ca565b6102c0565b6101436101903660046108ca565b6102ea565b6101436101a33660046108ca565b805160208183018101805160038252928201919093012091525460ff1681565b6101d66101d1366004610904565b6102fb565b005b6005546006546040805192835260208301919091520161014f565b6101d66103a6565b6101d66102093660046109dc565b6103b9565b6101d661021c3660046109dc565b610457565b61016160055481565b5f546001600160a01b03165b6040516001600160a01b03909116815260200161014f565b600254610236906001600160a01b031681565b6101d661026f366004610904565b6104f0565b600154610236906001600160a01b031681565b6101d66102953660046109fc565b610590565b6101d66102a83660046109fc565b61064a565b6101d66102bb3660046109dc565b6106f8565b5f6004826040516102d19190610a46565b9081526040519081900360200190205460ff1692915050565b5f6003826040516102d19190610a46565b610303610771565b5f5b815181101561036b576001600483838151811061032457610324610a61565b60200260200101516040516103399190610a46565b908152604051908190036020019020805491151560ff199092169190911790558061036381610a75565b915050610305565b507fa1fff20d01a0e99198b4e864395e34b724eee217559f1bac029598daac0a262a8160405161039b9190610a99565b60405180910390a150565b6103ae610771565b6103b75f6107ca565b565b6103c1610771565b6001600160a01b03811661040e5760405162461bcd60e51b815260206004820152600f60248201526e496e76616c6964206164647265737360881b60448201526064015b60405180910390fd5b600280546001600160a01b0319166001600160a01b0383169081179091556040517f1fa9acec762feb25ee126513f59520b41fc352308002a8ca868c9fcc5da93822905f90a250565b61045f610771565b6001600160a01b0381166104a75760405162461bcd60e51b815260206004820152600f60248201526e496e76616c6964206164647265737360881b6044820152606401610405565b600180546001600160a01b0319166001600160a01b0383169081179091556040517f0e55cac4e05a6e6ecdc6ea8af29287fd202d4e9c677847e3c050e4764368d30f905f90a250565b6104f8610771565b5f5b8151811015610560576001600383838151811061051957610519610a61565b602002602001015160405161052e9190610a46565b908152604051908190036020019020805491151560ff199092169190911790558061055881610a75565b9150506104fa565b507f3b3b992c59056413af12eaa9f8ac0364c0f858dac227f50691ac40793ad251908160405161039b9190610a99565b6001546001600160a01b03163314806105b257505f546001600160a01b031633145b6105ef5760405162461bcd60e51b815260206004820152600e60248201526d139bdd08185d5d1a1bdc9a5e995960921b6044820152606401610405565b60058054905f6105fe83610a75565b9190505550816001600160a01b03167f12ad11c80f4a781de3a6df710d8a7e6fba14bafbc3ea18cdb6c5dad54c04c8238260405161063e91815260200190565b60405180910390a25050565b6002546001600160a01b031633148061066c57505f546001600160a01b031633145b6106a95760405162461bcd60e51b815260206004820152600e60248201526d139bdd08185d5d1a1bdc9a5e995960921b6044820152606401610405565b60068054905f6106b883610a75565b9190505550816001600160a01b03167f5563c1ad1545a239609a9d51b27d5cebc1f2a3e53d68a22d4a160e54ee8725378260405161063e91815260200190565b610700610771565b6001600160a01b0381166107655760405162461bcd60e51b815260206004820152602660248201527f4f776e61626c653a206e6577206f776e657220697320746865207a65726f206160448201526564647265737360d01b6064820152608401610405565b61076e816107ca565b50565b5f546001600160a01b031633146103b75760405162461bcd60e51b815260206004820181905260248201527f4f776e61626c653a2063616c6c6572206973206e6f7420746865206f776e65726044820152606401610405565b5f80546001600160a01b038381166001600160a01b0319831681178455604051919092169283917f8be0079c531659141344cd1fd0a4f28419497f9722a3daafe3b4186f6b6457e09190a35050565b634e487b7160e01b5f52604160045260245ffd5b604051601f8201601f1916810167ffffffffffffffff8111828210171561085657610856610819565b604052919050565b5f82601f83011261086d575f80fd5b813567ffffffffffffffff81111561088757610887610819565b61089a601f8201601f191660200161082d565b8181528460208386010111156108ae575f80fd5b816020850160208301375f918101602001919091529392505050565b5f602082840312156108da575f80fd5b813567ffffffffffffffff8111156108f0575f80fd5b6108fc8482850161085e565b949350505050565b5f6020808385031215610915575f80fd5b823567ffffffffffffffff8082111561092c575f80fd5b818501915085601f83011261093f575f80fd5b81358181111561095157610951610819565b8060051b61096085820161082d565b9182528381018501918581019089841115610979575f80fd5b86860192505b838310156109b457823585811115610996575f8081fd5b6109a48b89838a010161085e565b835250918601919086019061097f565b9998505050505050505050565b80356001600160a01b03811681146109d7575f80fd5b919050565b5f602082840312156109ec575f80fd5b6109f5826109c1565b9392505050565b5f8060408385031215610a0d575f80fd5b610a16836109c1565b946020939093013593505050565b5f5b83811015610a3e578181015183820152602001610a26565b50505f910152565b5f8251610a57818460208701610a24565b9190910192915050565b634e487b7160e01b5f52603260045260245ffd5b5f60018201610a9257634e487b7160e01b5f52601160045260245ffd5b5060010190565b5f602080830181845280855180835260408601915060408160051b87010192508387015f5b82811015610b0457878503603f1901845281518051808752610ae5818989018a8501610a24565b601f01601f191695909501860194509285019290850190600101610abe565b509297965050505050505056fea2646970667358221220d8281eaa176ae332d29413c64f092d544ec4dd6354936c99af7cd499fa1f9d5264736f6c63430008140033",
  "linkReferences": {},
  "deployedLinkReferences": {},
  "immutableReferences": {},
  "inputSourceName": "project/contracts/Registry.sol",
  "buildInfoId": "solc-0_8_20-963cd0fb8921f6eb869a4f689b74f552f94a83d7"
}