{
  "_format": "hh3-artifact-1",
  "contractName": "SceneNFT",
  "sourceName": "contracts/SceneNFT.sol",
  "abi": [
    {
      "inputs": [],
      "stateMutability": "nonpayable",
      "type": "constructor"
    },
    {
      "anonymous": false,
      "inputs": [
        {
          "indexed": true,
          "internalType": "address",
          "name": "owner",
          "type": "address"
        },
        {
          "indexed": true,
          "internalType": "address",
          "name": "approved",
          "type": "address"
        },
        {
          "indexed": true,
          "internalType": "uint256",
          "name": "tokenId",
          "type": "uint256"
        }
      ],
      "name": "Approval",
      "type": "event"
    },
    {
      "anonymous": false,
      "inputs": [
        {
          "indexed": true,
          "internalType": "address",
          "name": "owner",
          "type": "address"
        },
        {
          "indexed": true,
          "internalType": "address",
          "name": "operator",
          "type": "address"
        },
        {
          "indexed": false,
          "internalType": "bool",
          "name": "approved",
          "type": "bool"
        }
      ],
      "name": "ApprovalForAll",
      "type": "event"
    },
    {
      "anonymous": false,
      "inputs": [
        {
          "indexed": false,
          "internalType": "uint256",
          "name": "_fromTokenId",
          "type": "uint256"
        },
        {
          "indexed": false,
          "internalType": "uint256",
          "name": "_toTokenId",
          "type": "uint256"
        }
      ],
      "name": "BatchMetadataUpdate",
      "type": "event"
    },
    {
      "anonymous": false,
      "inputs": [
        {
          "indexed": false,
          "internalType": "uint256",
          "name": "_tokenId",
          "type": "uint256"
        }
      ],
      "name": "MetadataUpdate",
      "type": "event"
    },
    {
      "anonymous": false,
      "inputs": [
        {
          "indexed": true,
          "internalType": "address",
          "name": "previousOwner",
          "type": "address"
        },
        {
          "indexed": true,
          "internalType": "address",
          "name": "newOwner",
          "type": "address"
        }
      ],
      "name": "OwnershipTransferred",
      "type": "event"
    },
    {
      "anonymous": false,
      "inputs": [
        {
          "indexed": true,
          "internalType": "uint256",
          "name": "tokenId",
          "type": "uint256"
        },
        {
          "indexed": true,
          "internalType": "address",
          "name": "creator",
          "type": "address"
        },
        {
          "indexed": false,
          "internalType": "string",
          "name": "sceneCID",
          "type": "string"
        },
        {
          "indexed": false,
          "internalType": "string",
          "name": "name",
          "type": "string"
        },
        {
          "indexed": false,
          "internalType": "uint256",
          "name": "objectCount",
          "type": "uint256"
        }
      ],
      "name": "SceneMinted",
      "type": "event"
    },
    {
      "anonymous": false,
      "inputs": [
        {
          "indexed": true,
          "internalType": "uint256",
          "name": "newTokenId",
          "type": "uint256"
        },
        {
          "indexed": true,
          "internalType": "uint256",
          "name": "parentTokenId",
          "type": "uint256"
        },
        {
          "indexed": true,
          "internalType": "address",
          "name": "creator",
          "type": "address"
        },
        {
          "indexed": false,
          "internalType": "uint256",
          "name": "version",
          "type": "uint256"
        }
      ],
      "name": "SceneVersioned",
      "type": "event"
    },
    {
      "anonymous": false,
      "inputs": [
        {
          "indexed": true,
          "internalType": "address",
          "name": "from",
          "type": "address"
        },
        {
          "indexed": true,
          "internalType": "address",
          "name": "to",
          "type": "address"
        },
        {
          "indexed": true,
          "internalType": "uint256",
          "name": "tokenId",
          "type": "uint256"
        }
      ],
      "name": "Transfer",
      "type": "event"
    },
    {
      "inputs": [
        {
          "internalType": "address",
          "name": "to",
          "type": "address"
        },
        {
          "internalType": "uint256",
          "name": "tokenId",
          "type": "uint256"
        }
      ],
      "name": "approve",
      "outputs": [],
      "stateMutability": "nonpayable",
      "type": "function"
    },
    {
      "inputs": [
        {
          "internalType": "address",
          "name": "owner",
          "type": "address"
        }
      ],
      "name": "balanceOf",
      "outputs": [
        {
          "internalType": "uint256",
          "name": "",
          "type": "uint256"
        }
      ],
      "stateMutability": "view",
      "type": "function"
    },
    {
      "inputs": [
        {
          "internalType": "uint256",
          "name": "tokenId",
          "type": "uint256"
        }
      ],
      "name": "burn",
      "outputs": [],
      "stateMutability": "nonpayable",
      "type": "function"
    },
    {
      "inputs": [
        {
          "internalType": "uint256",
          "name": "parentTokenId",
          "type": "uint256"
        },
        {
          "internalType": "string",
          "name": "sceneCID",
          "type": "string"
        },
        {
          "internalType": "string",
          "name": "metadataCID",
          "type": "string"
        },
        {
          "internalType": "string",
          "name": "thumbnailCID",
          "type": "string"
        },
        {
          "internalType": "uint256[]",
          "name": "objectTokenIds",
          "type": "uint256[]"
        }
      ],
      "name": "createVersion",
      "outputs": [
        {
          "internalType": "uint256",
          "name": "",
          "type": "uint256"
        }
      ],
      "stateMutability": "nonpayable",
      "type": "function"
    },
    {
      "inputs": [
        {
          "internalType": "uint256",
          "name": "tokenId",
          "type": "uint256"
        }
      ],
      "name": "getApproved",
      "outputs": [
        {
          "internalType": "address",
          "name": "",
          "type": "address"
        }
      ],
      "stateMutability": "view",
      "type": "function"
    },
    {
      "inputs": [
        {
          "internalType": "address",
          "name": "creator",
          "type": "address"
        }
      ],
      "name": "getCreatorTokens",
      "outputs": [
        {
          "internalType": "uint256[]",
          "name": "",
          "type": "uint256[]"
        }
      ],
      "stateMutability": "view",
      "type": "function"
    },
    {
      "inputs": [
        {
          "internalType": "uint256",
          "name": "tokenId",
          "type": "uint256"
        }
      ],
      "name": "getSceneMetadata",
      "outputs": [
        {
          "components": [
            {
              "internalType": "string",
              "name": "sceneCID",
              "type": "string"
            },
            {
              "internalType": "string",
              "name": "metadataCID",
              "type": "string"
            },
            {
              "internalType": "string",
              "name": "thumbnailCID",
              "type": "string"
            },
            {
              "internalType": "string",
              "name": "name",
              "type": "string"
            },
            {
              "internalType": "uint256[]",
              "name": "objectTokenIds",
              "type": "uint256[]"
            },
            {
              "internalType": "uint256",
              "name": "version",
              "type": "uint256"
            },
            {
              "internalType": "uint256",
              "name": "createdAt",
              "type": "uint256"
            },
            {
              "internalType": "address",
              "name": "creator",
              "type": "address"
            },
            {
              "internalType": "uint256",
              "name": "parentTokenId",
              "type": "uint256"
            }
          ],
          "internalType": "struct SceneNFT.SceneMetadata",
          "name": "",
          "type": "tuple"
        }
      ],
      "stateMutability": "view",
      "type": "function"
    },
    {
      "inputs": [
        {
          "internalType": "uint256",
          "name": "tokenId",
          "type": "uint256"
        }
      ],
      "name": "getSceneObjects",
      "outputs": [
        {
          "internalType": "uint256[]",
          "name": "",
          "type": "uint256[]"
        }
      ],
      "stateMutability": "view",
      "type": "function"
    },
    {
      "inputs": [
        {
          "internalType": "address",
          "name": "owner",
          "type": "address"
        },
        {
          "internalType": "address",
          "name": "operator",
          "type": "address"
        }
      ],
      "name": "isApprovedForAll",
      "outputs": [
        {
          "internalType": "bool",
          "name": "",
          "type": "bool"
        }
      ],
      "stateMutability": "view",
      "type": "function"
    },
    {
      "inputs": [
        {
          "internalType": "address",
          "name": "to",
          "type": "address"
        },
        {
          "internalType": "string",
          "name": "sceneCID",
          "type": "string"
        },
        {
          "internalType": "string",
          "name": "metadataCID",
          "type": "string"
        },
        {
          "internalType": "string",
          "name": "thumbnailCID",
          "type": "string"
        },
        {
          "internalType": "string",
          "name": "name",
          "type": "string"
        },
        {
          "internalType": "uint256[]",
          "name": "objectTokenIds",
          "type": "uint256[]"
        }
      ],
      "name": "mintScene",
      "outputs": [
        {
          "internalType": "uint256",
          "name": "",
          "type": "uint256"
        }
      ],
      "stateMutability": "nonpayable",
      "type": "function"
    },
    {
      "inputs": [],
      "name": "name",
      "outputs": [
        {
          "internalType": "string",
          "name": "",
          "type": "string"
        }
      ],
      "stateMutability": "view",
      "type": "function"
    },
    {
      "inputs": [],
      "name": "owner",
      "outputs": [
        {
          "internalType": "address",
          "name": "",
          "type": "address"
        }
      ],
      "stateMutability": "view",
      "type": "function"
    },
    {
      "inputs": [
        {
          "internalType": "uint256",
          "name": "tokenId",
          "type": "uint256"
        }
      ],
      "name": "ownerOf",
      "outputs": [
        {
          "internalType": "address",
          "name": "",
          "type": "address"
        }
      ],
      "stateMutability": "view",
      "type": "function"
    },
    {
      "inputs": [],
      "name": "renounceOwnership",
      "outputs": [],
      "stateMutability": "nonpayable",
      "type": "function"
    },
    {
      "inputs": [
        {
          "internalType": "address",
          "name": "from",
          "type": "address"
        },
        {
          "internalType": "address",
          "name": "to",
          "type": "address"
        },
        {
          "internalType": "uint256",
          "name": "tokenId",
          "type": "uint256"
        }
      ],
      "name": "safeTransferFrom",
      "outputs": [],
      "stateMutability": "nonpayable",
      "type": "function"
    },
    {
      "inputs": [
        {
          "internalType": "address",
          "name": "from",
          "type": "address"
        },
        {
          "internalType": "address",
          "name": "to",
          "type": "address"
        },
        {
          "internalType": "uint256",
          "name": "tokenId",
          "type": "uint256"
        },
        {
          "internalType": "bytes",
          "name": "data",
          "type": "bytes"
        }
      ],
      "name": "safeTransferFrom",
      "outputs": [],
      "stateMutability": "nonpayable",
      "type": "function"
    },
    {
      "inputs": [
        {
          "internalType": "uint256",
          "name": "",
          "type": "uint256"
        }
      ],
      "name": "sceneMetadata",
      "outputs": [
        {
          "internalType": "string",
          "name": "sceneCID",
          "type": "string"
        },
        {
          "internalType": "string",
          "name": "metadataCID",
          "type": "string"
        },
        {
          "internalType": "string",
          "name": "thumbnailCID",
          "type": "string"
        },
        {
          "internalType": "string",
          "name": "name",
          "type": "string"
        },
        {
          "internalType": "uint256",
          "name": "version",
          "type": "uint256"
        },
        {
          "internalType": "uint256",
          "name": "createdAt",
          "type": "uint256"
        },
        {
          "internalType": "address",
          "name": "creator",
          "type": "address"
        },
        {
          "internalType": "uint256",
          "name": "parentTokenId",
          "type": "uint256"
        }
      ],
      "stateMutability": "view",
      "type": "function"
    },
    {
      "inputs": [
        {
          "internalType": "address",
          "name": "operator",
          "type": "address"
        },
        {
          "internalType": "bool",
          "name": "approved",
          "type": "bool"
        }
      ],
      "name": "setApprovalForAll",
      "outputs": [],
      "stateMutability": "nonpayable",
      "type": "function"
    },
    {
      "inputs": [
        {
          "internalType": "bytes4",
          "name": "interfaceId",
          "type": "bytes4"
        }
      ],
      "name": "supportsInterface",
      "outputs": [
        {
          "internalType": "bool",
          "name": "",
          "type": "bool"
        }
      ],
      "stateMutability": "view",
      "type": "function"
    },
    {
      "inputs": [],
      "name": "symbol",
      "outputs": [
        {
          "internalType": "string",
          "name": "",
          "type": "string"
        }
      ],
      "stateMutability": "view",
      "type": "function"
    },
    {
      "inputs": [
        {
          "internalType": "uint256",
          "name": "tokenId",
          "type": "uint256"
        }
      ],
      "name": "tokenURI",
      "outputs": [
        {
          "internalType": "string",
          "name": "",
          "type": "string"
        }
      ],
      "stateMutability": "view",
      "type": "function"
    },
    {
      "inputs": [],
      "name": "totalSupply",
      "outputs": [
        {
          "internalType": "uint256",
          "name": "",
          "type": "uint256"
        }
      ],
      "stateMutability": "view",
      "type": "function"
    },
    {
      "inputs": [
        {
          "internalType": "address",
          "name": "from",
          "type": "address"
        },
        {
          "internalType": "address",
          "name": "to",
          "type": "address"
        },
        {
          "internalType": "uint256",
          "name": "tokenId",
          "type": "uint256"
        }
      ],
      "name": "transferFrom",
      "outputs": [],
      "stateMutability": "nonpayable",
      "type": "function"
    },
    {
      "inputs": [
        {
          "internalType": "address",
          "name": "newOwner",
          "type": "address"
        }
      ],
      "name": "transferOwnership",
      "outputs": [],
      "stateMutability": "nonpayable",
      "type": "function"
    }
  ],
  "bytecode": "0x608060405234801562000010575f80fd5b506040518060400160405280600e81526020016d131a59994814d8d95b994813919560921b815250604051806040016040528060048152602001632629a1a760e11b815250815f90816200006591906200018c565b5060016200007482826200018c565b505050620000916200008b6200009760201b60201c565b6200009b565b62000254565b3390565b600780546001600160a01b038381166001600160a01b0319831681179093556040519116919082907f8be0079c531659141344cd1fd0a4f28419497f9722a3daafe3b4186f6b6457e0905f90a35050565b634e487b7160e01b5f52604160045260245ffd5b600181811c908216806200011557607f821691505b6020821081036200013457634e487b7160e01b5f52602260045260245ffd5b50919050565b601f82111562000187575f81815260208120601f850160051c81016020861015620001625750805b601f850160051c820191505b8181101562000183578281556001016200016e565b5050505b505050565b81516001600160401b03811115620001a857620001a8620000ec565b620001c081620001b9845462000100565b846200013a565b602080601f831160018114620001f6575f8415620001de5750858301515b5f19600386901b1c1916600185901b17855562000183565b5f85815260208120601f198616915b82811015620002265788860151825594840194600190910190840162000205565b50858210156200024457878501515f19600388901b60f8161c191681555b5050505050600190811b01905550565b612c4a80620002625f395ff3fe608060405234801561000f575f80fd5b5060043610610153575f3560e01c8063715018a6116100bf578063b88d4fde11610079578063b88d4fde146102f7578063c87b56dd1461030a578063dbb6f4331461031d578063e90a12fc14610330578063e985e9c514610343578063f2fde38b14610356575f80fd5b8063715018a61461029057806374abfa54146102985780638cf9f34d146102ab5780638da5cb5b146102cb57806395d89b41146102dc578063a22cb465146102e4575f80fd5b806342842e0e1161011057806342842e0e146101fd57806342966c681461021057806362b4ba85146102235780636352211e1461024a57806368d137f51461025d57806370a082311461027d575f80fd5b806301ffc9a71461015757806306fdde031461017f578063081812fc14610194578063095ea7b3146101bf57806318160ddd146101d457806323b872dd146101ea575b5f80fd5b61016a610165366004612251565b610369565b60405190151581526020015b60405180910390f35b610187610379565b60405161017691906122b9565b6101a76101a23660046122cb565b610408565b6040516001600160a01b039091168152602001610176565b6101d26101cd3660046122fd565b61042d565b005b6101dc610546565b604051908152602001610176565b6101d26101f8366004612325565b610555565b6101d261020b366004612325565b610587565b6101d261021e3660046122cb565b6105a1565b6102366102313660046122cb565b6105d2565b60405161017698979695949392919061235e565b6101a76102583660046122cb565b610836565b61027061026b3660046122cb565b610895565b60405161017691906123de565b6101dc61028b366004612421565b610952565b6101d26109d6565b6102706102a6366004612421565b6109e9565b6102be6102b93660046122cb565b610a50565b6040516101769190612473565b6007546001600160a01b03166101a7565b610187610de4565b6101d26102f236600461254b565b610df3565b6101d261030536600461261e565b610e02565b6101876103183660046122cb565b610e3a565b6101dc61032b366004612730565b610e45565b6101dc61033e366004612808565b611003565b61016a6103513660046128b7565b611515565b6101d2610364366004612421565b611542565b5f610373826115b8565b92915050565b60605f8054610387906128e8565b80601f01602080910402602001604051908101604052809291908181526020018280546103b3906128e8565b80156103fe5780601f106103d5576101008083540402835291602001916103fe565b820191905f5260205f20905b8154815290600101906020018083116103e157829003601f168201915b5050505050905090565b5f610412826115dc565b505f908152600460205260409020546001600160a01b031690565b5f61043782610836565b9050806001600160a01b0316836001600160a01b0316036104a95760405162461bcd60e51b815260206004820152602160248201527f4552433732313a20617070726f76616c20746f2063757272656e74206f776e656044820152603960f91b60648201526084015b60405180910390fd5b336001600160a01b03821614806104c557506104c58133611515565b6105375760405162461bcd60e51b815260206004820152603d60248201527f4552433732313a20617070726f76652063616c6c6572206973206e6f7420746f60448201527f6b656e206f776e6572206f7220617070726f76656420666f7220616c6c00000060648201526084016104a0565b610541838361163a565b505050565b5f61055060085490565b905090565b610560335b826116a7565b61057c5760405162461bcd60e51b81526004016104a090612920565b610541838383611705565b61054183838360405180602001604052805f815250610e02565b6105aa3361055a565b6105c65760405162461bcd60e51b81526004016104a090612920565b6105cf81611867565b50565b60096020525f90815260409020805481906105ec906128e8565b80601f0160208091040260200160405190810160405280929190818152602001828054610618906128e8565b80156106635780601f1061063a57610100808354040283529160200191610663565b820191905f5260205f20905b81548152906001019060200180831161064657829003601f168201915b505050505090806001018054610678906128e8565b80601f01602080910402602001604051908101604052809291908181526020018280546106a4906128e8565b80156106ef5780601f106106c6576101008083540402835291602001916106ef565b820191905f5260205f20905b8154815290600101906020018083116106d257829003601f168201915b505050505090806002018054610704906128e8565b80601f0160208091040260200160405190810160405280929190818152602001828054610730906128e8565b801561077b5780601f106107525761010080835404028352916020019161077b565b820191905f5260205f20905b81548152906001019060200180831161075e57829003601f168201915b505050505090806003018054610790906128e8565b80601f01602080910402602001604051908101604052809291908181526020018280546107bc906128e8565b80156108075780601f106107de57610100808354040283529160200191610807565b820191905f5260205f20905b8154815290600101906020018083116107ea57829003601f168201915b505050600584015460068501546007860154600890960154949591949093506001600160a01b03909116915088565b5f818152600260205260408120546001600160a01b0316806103735760405162461bcd60e51b8152602060048201526018602482015277115490cdcc8c4e881a5b9d985b1a59081d1bdad95b88125160421b60448201526064016104a0565b5f818152600260205260409020546060906001600160a01b03166108f25760405162461bcd60e51b8152602060048201526014602482015273151bdad95b88191bd95cc81b9bdd08195e1a5cdd60621b60448201526064016104a0565b5f828152600960209081526040918290206004018054835181840281018401909452808452909183018282801561094657602002820191905f5260205f20905b815481526020019060010190808311610932575b50505050509050919050565b5f6001600160a01b0382166109bb5760405162461bcd60e51b815260206004820152602960248201527f4552433732313a2061646472657373207a65726f206973206e6f7420612076616044820152683634b21037bbb732b960b91b60648201526084016104a0565b506001600160a01b03165f9081526003602052604090205490565b6109de611870565b6109e75f6118ca565b565b6001600160a01b0381165f908152600a602090815260409182902080548351818402810184019094528084526060939283018282801561094657602002820191905f5260205f20908154815260200190600101908083116109325750505050509050919050565b610aa460405180610120016040528060608152602001606081526020016060815260200160608152602001606081526020015f81526020015f81526020015f6001600160a01b031681526020015f81525090565b5f828152600260205260409020546001600160a01b0316610afe5760405162461bcd60e51b8152602060048201526014602482015273151bdad95b88191bd95cc81b9bdd08195e1a5cdd60621b60448201526064016104a0565b5f828152600960205260409081902081516101208101909252805482908290610b26906128e8565b80601f0160208091040260200160405190810160405280929190818152602001828054610b52906128e8565b8015610b9d5780601f10610b7457610100808354040283529160200191610b9d565b820191905f5260205f20905b815481529060010190602001808311610b8057829003601f168201915b50505050508152602001600182018054610bb6906128e8565b80601f0160208091040260200160405190810160405280929190818152602001828054610be2906128e8565b8015610c2d5780601f10610c0457610100808354040283529160200191610c2d565b820191905f5260205f20905b815481529060010190602001808311610c1057829003601f168201915b50505050508152602001600282018054610c46906128e8565b80601f0160208091040260200160405190810160405280929190818152602001828054610c72906128e8565b8015610cbd5780601f10610c9457610100808354040283529160200191610cbd565b820191905f5260205f20905b815481529060010190602001808311610ca057829003601f168201915b50505050508152602001600382018054610cd6906128e8565b80601f0160208091040260200160405190810160405280929190818152602001828054610d02906128e8565b8015610d4d5780601f10610d2457610100808354040283529160200191610d4d565b820191905f5260205f20905b815481529060010190602001808311610d3057829003601f168201915b5050505050815260200160048201805480602002602001604051908101604052809291908181526020018280548015610da357602002820191905f5260205f20905b815481526020019060010190808311610d8f575b5050509183525050600582015460208201526006820154604082015260078201546001600160a01b0316606082015260089091015460809091015292915050565b606060018054610387906128e8565b610dfe33838361191b565b5050565b610e0c33836116a7565b610e285760405162461bcd60e51b81526004016104a090612920565b610e34848484846119e8565b50505050565b606061037382611a1b565b5f80610e5060085490565b9050610e60600880546001019055565b610e6a8882611b1d565b610e938187604051602001610e7f919061296d565b604051602081830303815290604052611b36565b604080516101208101825288815260208082018990528183018890526060820187905260808201869052600160a08301524260c08301523360e08301525f610100830181905284815260099091529190912081518190610ef390826129e8565b5060208201516001820190610f0890826129e8565b5060408201516002820190610f1d90826129e8565b5060608201516003820190610f3290826129e8565b5060808201518051610f4e9160048401916020909101906121ac565b5060a0820151600582015560c0820151600682015560e08201516007820180546001600160a01b0319166001600160a01b0390921691909117905561010090910151600890910155335f818152600a60209081526040808320805460018101825590845291909220018390558451905183917f27da54de30faa564b39c1fd16f9cc2674423e12a449495de2f79996a5df3cd1d91610ff0918c918a9190612aa4565b60405180910390a3979650505050505050565b5f858152600260205260408120546001600160a01b031633146110685760405162461bcd60e51b815260206004820152601d60248201527f4e6f7420746865206f776e6572206f6620706172656e7420746f6b656e00000060448201526064016104a0565b5f868152600960205260408082208151610120810190925280548290829061108f906128e8565b80601f01602080910402602001604051908101604052809291908181526020018280546110bb906128e8565b80156111065780601f106110dd57610100808354040283529160200191611106565b820191905f5260205f20905b8154815290600101906020018083116110e957829003601f168201915b5050505050815260200160018201805461111f906128e8565b80601f016020809104026020016040519081016040528092919081815260200182805461114b906128e8565b80156111965780601f1061116d57610100808354040283529160200191611196565b820191905f5260205f20905b81548152906001019060200180831161117957829003601f168201915b505050505081526020016002820180546111af906128e8565b80601f01602080910402602001604051908101604052809291908181526020018280546111db906128e8565b80156112265780601f106111fd57610100808354040283529160200191611226565b820191905f5260205f20905b81548152906001019060200180831161120957829003601f168201915b5050505050815260200160038201805461123f906128e8565b80601f016020809104026020016040519081016040528092919081815260200182805461126b906128e8565b80156112b65780601f1061128d576101008083540402835291602001916112b6565b820191905f5260205f20905b81548152906001019060200180831161129957829003601f168201915b505050505081526020016004820180548060200260200160405190810160405280929190818152602001828054801561130c57602002820191905f5260205f20905b8154815260200190600101908083116112f8575b5050509183525050600582015460208201526006820154604082015260078201546001600160a01b0316606082015260089091015460809091015260a08101519091505f9061135c906001612ad9565b90505f61136860085490565b9050611378600880546001019055565b6113823382611b1d565b6113978188604051602001610e7f919061296d565b604051806101200160405280898152602001888152602001878152602001846060015181526020018681526020018381526020014281526020018460e001516001600160a01b031681526020018a81525060095f8381526020019081526020015f205f820151815f01908161140c91906129e8565b506020820151600182019061142190826129e8565b506040820151600282019061143690826129e8565b506060820151600382019061144b90826129e8565b50608082015180516114679160048401916020909101906121ac565b5060a0820151600582015560c0820151600682015560e08201516007820180546001600160a01b0319166001600160a01b0390921691909117905561010090910151600890910155335f818152600a6020908152604080832080546001810182559084529282902090920184905590518481528b9184917f40335643fa7a2f72bd46ea12873c2b7589eab1100e47b9ce8b0cbb1abadde2fb910160405180910390a498975050505050505050565b6001600160a01b039182165f90815260056020908152604080832093909416825291909152205460ff1690565b61154a611870565b6001600160a01b0381166115af5760405162461bcd60e51b815260206004820152602660248201527f4f776e61626c653a206e6577206f776e657220697320746865207a65726f206160448201526564647265737360d01b60648201526084016104a0565b6105cf816118ca565b5f6001600160e01b03198216632483248360e11b1480610373575061037382611bff565b5f818152600260205260409020546001600160a01b03166105cf5760405162461bcd60e51b8152602060048201526018602482015277115490cdcc8c4e881a5b9d985b1a59081d1bdad95b88125160421b60448201526064016104a0565b5f81815260046020526040902080546001600160a01b0319166001600160a01b038416908117909155819061166e82610836565b6001600160a01b03167f8c5be1e5ebec7d5bd14f71427d1e84f3dd0314c0f7b2291e5b200ac8c7c3b92560405160405180910390a45050565b5f806116b283610836565b9050806001600160a01b0316846001600160a01b031614806116d957506116d98185611515565b806116fd5750836001600160a01b03166116f284610408565b6001600160a01b0316145b949350505050565b826001600160a01b031661171882610836565b6001600160a01b03161461173e5760405162461bcd60e51b81526004016104a090612af8565b6001600160a01b0382166117a05760405162461bcd60e51b8152602060048201526024808201527f4552433732313a207472616e7366657220746f20746865207a65726f206164646044820152637265737360e01b60648201526084016104a0565b826001600160a01b03166117b382610836565b6001600160a01b0316146117d95760405162461bcd60e51b81526004016104a090612af8565b5f81815260046020908152604080832080546001600160a01b03199081169091556001600160a01b038781168086526003855283862080545f1901905590871680865283862080546001019055868652600290945282852080549092168417909155905184937fddf252ad1be2c89b69c2b068fc378daa952ba7f163c4a11628f55a4df523b3ef91a4505050565b6105cf81611c4e565b6007546001600160a01b031633146109e75760405162461bcd60e51b815260206004820181905260248201527f4f776e61626c653a2063616c6c6572206973206e6f7420746865206f776e657260448201526064016104a0565b600780546001600160a01b038381166001600160a01b0319831681179093556040519116919082907f8be0079c531659141344cd1fd0a4f28419497f9722a3daafe3b4186f6b6457e0905f90a35050565b816001600160a01b0316836001600160a01b03160361197c5760405162461bcd60e51b815260206004820152601960248201527f4552433732313a20617070726f766520746f2063616c6c65720000000000000060448201526064016104a0565b6001600160a01b038381165f81815260056020908152604080832094871680845294825291829020805460ff191686151590811790915591519182527f17307eab39ab6107e8899845ad3d59bd9653f200f220920489ca2b5937696c31910160405180910390a3505050565b6119f3848484611705565b6119ff84848484611c8c565b610e345760405162461bcd60e51b81526004016104a090612b3d565b6060611a26826115dc565b5f8281526006602052604081208054611a3e906128e8565b80601f0160208091040260200160405190810160405280929190818152602001828054611a6a906128e8565b8015611ab55780601f10611a8c57610100808354040283529160200191611ab5565b820191905f5260205f20905b815481529060010190602001808311611a9857829003601f168201915b505050505090505f611ad160408051602081019091525f815290565b905080515f03611ae2575092915050565b815115611b14578082604051602001611afc929190612b8f565b60405160208183030381529060405292505050919050565b6116fd84611d89565b610dfe828260405180602001604052805f815250611df9565b5f828152600260205260409020546001600160a01b0316611bb05760405162461bcd60e51b815260206004820152602e60248201527f45524337323155524953746f726167653a2055524920736574206f66206e6f6e60448201526d32bc34b9ba32b73a103a37b5b2b760911b60648201526084016104a0565b5f828152600660205260409020611bc782826129e8565b506040518281527ff8e1a15aba9398e019f0b49df1a4fde98ee17ae345cb5f6b5e2c27f5033e8ce79060200160405180910390a15050565b5f6001600160e01b031982166380ac58cd60e01b1480611c2f57506001600160e01b03198216635b5e139f60e01b145b8061037357506301ffc9a760e01b6001600160e01b0319831614610373565b611c5781611e2b565b5f8181526006602052604090208054611c6f906128e8565b1590506105cf575f8181526006602052604081206105cf916121f5565b5f6001600160a01b0384163b15611d7e57604051630a85bd0160e11b81526001600160a01b0385169063150b7a0290611ccf903390899088908890600401612bbd565b6020604051808303815f875af1925050508015611d09575060408051601f3d908101601f19168201909252611d0691810190612bf9565b60015b611d64573d808015611d36576040519150601f19603f3d011682016040523d82523d5f602084013e611d3b565b606091505b5080515f03611d5c5760405162461bcd60e51b81526004016104a090612b3d565b805181602001fd5b6001600160e01b031916630a85bd0160e11b1490506116fd565b506001949350505050565b6060611d94826115dc565b5f611da960408051602081019091525f815290565b90505f815111611dc75760405180602001604052805f815250611df2565b80611dd184611ebd565b604051602001611de2929190612b8f565b6040516020818303038152906040525b9392505050565b611e038383611f4d565b611e0f5f848484611c8c565b6105415760405162461bcd60e51b81526004016104a090612b3d565b5f611e3582610836565b9050611e4082610836565b5f83815260046020908152604080832080546001600160a01b03199081169091556001600160a01b0385168085526003845282852080545f190190558785526002909352818420805490911690555192935084927fddf252ad1be2c89b69c2b068fc378daa952ba7f163c4a11628f55a4df523b3ef908390a45050565b60605f611ec9836120d5565b60010190505f8167ffffffffffffffff811115611ee857611ee8612584565b6040519080825280601f01601f191660200182016040528015611f12576020820181803683370190505b5090508181016020015b5f19016f181899199a1a9b1b9c1cb0b131b232b360811b600a86061a8153600a8504945084611f1c57509392505050565b6001600160a01b038216611fa35760405162461bcd60e51b815260206004820181905260248201527f4552433732313a206d696e7420746f20746865207a65726f206164647265737360448201526064016104a0565b5f818152600260205260409020546001600160a01b0316156120075760405162461bcd60e51b815260206004820152601c60248201527f4552433732313a20746f6b656e20616c7265616479206d696e7465640000000060448201526064016104a0565b5f818152600260205260409020546001600160a01b03161561206b5760405162461bcd60e51b815260206004820152601c60248201527f4552433732313a20746f6b656e20616c7265616479206d696e7465640000000060448201526064016104a0565b6001600160a01b0382165f81815260036020908152604080832080546001019055848352600290915280822080546001600160a01b0319168417905551839291907fddf252ad1be2c89b69c2b068fc378daa952ba7f163c4a11628f55a4df523b3ef908290a45050565b5f8072184f03e93ff9f4daa797ed6e38ed64bf6a1f0160401b83106121135772184f03e93ff9f4daa797ed6e38ed64bf6a1f0160401b830492506040015b6d04ee2d6d415b85acef8100000000831061213f576d04ee2d6d415b85acef8100000000830492506020015b662386f26fc10000831061215d57662386f26fc10000830492506010015b6305f5e1008310612175576305f5e100830492506008015b612710831061218957612710830492506004015b6064831061219b576064830492506002015b600a83106103735760010192915050565b828054828255905f5260205f209081019282156121e5579160200282015b828111156121e55782518255916020019190600101906121ca565b506121f1929150612228565b5090565b508054612201906128e8565b5f825580601f10612210575050565b601f0160209004905f5260205f20908101906105cf91905b5b808211156121f1575f8155600101612229565b6001600160e01b0319811681146105cf575f80fd5b5f60208284031215612261575f80fd5b8135611df28161223c565b5f5b8381101561228657818101518382015260200161226e565b50505f910152565b5f81518084526122a581602086016020860161226c565b601f01601f19169290920160200192915050565b602081525f611df2602083018461228e565b5f602082840312156122db575f80fd5b5035919050565b80356001600160a01b03811681146122f8575f80fd5b919050565b5f806040838503121561230e575f80fd5b612317836122e2565b946020939093013593505050565b5f805f60608486031215612337575f80fd5b612340846122e2565b925061234e602085016122e2565b9150604084013590509250925092565b5f6101008083526123718184018c61228e565b90508281036020840152612385818b61228e565b90508281036040840152612399818a61228e565b905082810360608401526123ad818961228e565b6080840197909752505060a08101939093526001600160a01b039190911660c083015260e090910152949350505050565b602080825282518282018190525f9190848201906040850190845b81811015612415578351835292840192918401916001016123f9565b50909695505050505050565b5f60208284031215612431575f80fd5b611df2826122e2565b5f8151808452602080850194508084015f5b838110156124685781518752958201959082019060010161244c565b509495945050505050565b602081525f825161012080602085015261249161014085018361228e565b91506020850151601f19808685030160408701526124af848361228e565b935060408701519150808685030160608701526124cc848361228e565b935060608701519150808685030160808701526124e9848361228e565b935060808701519150808685030160a087015250612507838261243a565b92505060a085015160c085015260c085015160e085015260e085015161010061253a818701836001600160a01b03169052565b959095015193019290925250919050565b5f806040838503121561255c575f80fd5b612565836122e2565b915060208301358015158114612579575f80fd5b809150509250929050565b634e487b7160e01b5f52604160045260245ffd5b604051601f8201601f1916810167ffffffffffffffff811182821017156125c1576125c1612584565b604052919050565b5f67ffffffffffffffff8311156125e2576125e2612584565b6125f5601f8401601f1916602001612598565b9050828152838383011115612608575f80fd5b828260208301375f602084830101529392505050565b5f805f8060808587031215612631575f80fd5b61263a856122e2565b9350612648602086016122e2565b925060408501359150606085013567ffffffffffffffff81111561266a575f80fd5b8501601f8101871361267a575f80fd5b612689878235602084016125c9565b91505092959194509250565b5f82601f8301126126a4575f80fd5b611df2838335602085016125c9565b5f82601f8301126126c2575f80fd5b8135602067ffffffffffffffff8211156126de576126de612584565b8160051b6126ed828201612598565b9283528481018201928281019087851115612706575f80fd5b83870192505b848310156127255782358252918301919083019061270c565b979650505050505050565b5f805f805f8060c08789031215612745575f80fd5b61274e876122e2565b9550602087013567ffffffffffffffff8082111561276a575f80fd5b6127768a838b01612695565b9650604089013591508082111561278b575f80fd5b6127978a838b01612695565b955060608901359150808211156127ac575f80fd5b6127b88a838b01612695565b945060808901359150808211156127cd575f80fd5b6127d98a838b01612695565b935060a08901359150808211156127ee575f80fd5b506127fb89828a016126b3565b9150509295509295509295565b5f805f805f60a0868803121561281c575f80fd5b85359450602086013567ffffffffffffffff8082111561283a575f80fd5b61284689838a01612695565b9550604088013591508082111561285b575f80fd5b61286789838a01612695565b9450606088013591508082111561287c575f80fd5b61288889838a01612695565b9350608088013591508082111561289d575f80fd5b506128aa888289016126b3565b9150509295509295909350565b5f80604083850312156128c8575f80fd5b6128d1836122e2565b91506128df602084016122e2565b90509250929050565b600181811c908216806128fc57607f821691505b60208210810361291a57634e487b7160e01b5f52602260045260245ffd5b50919050565b6020808252602d908201527f4552433732313a2063616c6c6572206973206e6f7420746f6b656e206f776e6560408201526c1c881bdc88185c1c1c9bdd9959609a1b606082015260800190565b66697066733a2f2f60c81b81525f825161298e81600785016020870161226c565b9190910160070192915050565b601f821115610541575f81815260208120601f850160051c810160208610156129c15750805b601f850160051c820191505b818110156129e0578281556001016129cd565b505050505050565b815167ffffffffffffffff811115612a0257612a02612584565b612a1681612a1084546128e8565b8461299b565b602080601f831160018114612a49575f8415612a325750858301515b5f19600386901b1c1916600185901b1785556129e0565b5f85815260208120601f198616915b82811015612a7757888601518255948401946001909101908401612a58565b5085821015612a9457878501515f19600388901b60f8161c191681555b5050505050600190811b01905550565b606081525f612ab6606083018661228e565b8281036020840152612ac8818661228e565b915050826040830152949350505050565b8082018082111561037357634e487b7160e01b5f52601160045260245ffd5b60208082526025908201527f4552433732313a207472616e736665722066726f6d20696e636f72726563742060408201526437bbb732b960d91b606082015260800190565b60208082526032908201527f4552433732313a207472616e7366657220746f206e6f6e20455243373231526560408201527131b2b4bb32b91034b6b83632b6b2b73a32b960711b606082015260800190565b5f8351612ba081846020880161226c565b835190830190612bb481836020880161226c565b01949350505050565b6001600160a01b03858116825284166020820152604081018390526080606082018190525f90612bef9083018461228e565b9695505050505050565b5f60208284031215612c09575f80fd5b8151611df28161223c56fea2646970667358221220da8295837643e23ff182a5fcb906658204bb60027ff42ab33dee744ae71c346464736f6c63430008140033",
  "linkReferences": {},
  "deployedLinkReferences": {},
  "immutableReferences": {},
  "inputSourceName": "project/contracts/SceneNFT.sol",
  "buildInfoId": "solc-0_8_20-0fb0394b520937a25ba25b7be35f06df694f9a42"
}